{
  "contractName": "entrygate",
  "abi": [
    {
      "constant": true,
      "inputs": [
        {
          "name": "",
          "type": "uint256"
        }
      ],
      "name": "LotNumber",
      "outputs": [
        {
          "name": "",
          "type": "int256"
        }
      ],
      "payable": false,
      "stateMutability": "view",
      "type": "function"
    },
    {
      "inputs": [
        {
          "name": "_initialcontract",
          "type": "address"
        }
      ],
      "payable": false,
      "stateMutability": "nonpayable",
      "type": "constructor"
    },
    {
      "anonymous": false,
      "inputs": [
        {
          "indexed": true,
          "name": "_ots",
          "type": "string"
        },
        {
          "indexed": false,
          "name": "lotnumber",
          "type": "int256"
        }
      ],
      "name": "DataIntoEntryGate",
      "type": "event"
    },
    {
      "constant": true,
      "inputs": [
        {
          "name": "_a",
          "type": "string"
        },
        {
          "name": "_b",
          "type": "string"
        }
      ],
      "name": "stringsEqual",
      "outputs": [
        {
          "name": "",
          "type": "bool"
        }
      ],
      "payable": false,
      "stateMutability": "pure",
      "type": "function"
    },
    {
      "constant": false,
      "inputs": [
        {
          "name": "lotnumber",
          "type": "int256"
        },
        {
          "name": "fname",
          "type": "string"
        },
        {
          "name": "fots",
          "type": "string"
        },
        {
          "name": "fmandi",
          "type": "string"
        },
        {
          "name": "fstate",
          "type": "string"
        },
        {
          "name": "pname",
          "type": "string"
        },
        {
          "name": "pquality",
          "type": "string"
        },
        {
          "name": "pbs",
          "type": "int256"
        },
        {
          "name": "pnobag",
          "type": "int256"
        }
      ],
      "name": "AddEntryGate",
      "outputs": [
        {
          "name": "",
          "type": "bool"
        }
      ],
      "payable": true,
      "stateMutability": "payable",
      "type": "function"
    }
  ],
  "bytecode": "0x608060405234801561001057600080fd5b5060405160208061082c8339810180604052810190808051906020019092919050505080600160006101000a81548173ffffffffffffffffffffffffffffffffffffffff021916908373ffffffffffffffffffffffffffffffffffffffff160217905550506107a8806100846000396000f300608060405260043610610057576000357c0100000000000000000000000000000000000000000000000000000000900463ffffffff16806313d199501461005c5780635e14936714610123578063e4851efb14610313575b600080fd5b34801561006857600080fd5b50610109600480360381019080803590602001908201803590602001908080601f0160208091040260200160405190810160405280939291908181526020018383808284378201915050505050509192919290803590602001908201803590602001908080601f0160208091040260200160405190810160405280939291908181526020018383808284378201915050505050509192919290505050610354565b604051808215151515815260200191505060405180910390f35b6102f960048036038101908080359060200190929190803590602001908201803590602001908080601f0160208091040260200160405190810160405280939291908181526020018383808284378201915050505050509192919290803590602001908201803590602001908080601f0160208091040260200160405190810160405280939291908181526020018383808284378201915050505050509192919290803590602001908201803590602001908080601f0160208091040260200160405190810160405280939291908181526020018383808284378201915050505050509192919290803590602001908201803590602001908080601f0160208091040260200160405190810160405280939291908181526020018383808284378201915050505050509192919290803590602001908201803590602001908080601f0160208091040260200160405190810160405280939291908181526020018383808284378201915050505050509192919290803590602001908201803590602001908080601f016020809104026020016040519081016040528093929190818152602001838380828437820191505050505050919291929080359060200190929190803590602001909291905050506104a4565b604051808215151515815260200191505060405180910390f35b34801561031f57600080fd5b5061033e600480360381019080803590602001909291905050506106b4565b6040518082815260200191505060405180910390f35b6000606080600085925084915081518351141515610375576000935061049b565b600090505b825181101561049657818181518110151561039157fe5b9060200101517f010000000000000000000000000000000000000000000000000000000000000090047f0100000000000000000000000000000000000000000000000000000000000000027effffffffffffffffffffffffffffffffffffffffffffffffffffffffffffff1916838281518110151561040c57fe5b9060200101517f010000000000000000000000000000000000000000000000000000000000000090047f0100000000000000000000000000000000000000000000000000000000000000027effffffffffffffffffffffffffffffffffffffffffffffffffffffffffffff1916141515610489576000935061049b565b808060010191505061037a565b600193505b50505092915050565b6000808a908060018154018082558091505090600182039060005260206000200160009091929091909150555088600260008c815260200190815260200160002060000190805190602001906104fb9291906106d7565b5087600260008c815260200190815260200160002060010190805190602001906105269291906106d7565b5086600260008c815260200190815260200160002060030190805190602001906105519291906106d7565b5085600260008c8152602001908152602001600020600401908051906020019061057c9291906106d7565b5084600260008c815260200190815260200160002060050190805190602001906105a79291906106d7565b5083600260008c815260200190815260200160002060060190805190602001906105d29291906106d7565b5082600260008c81526020019081526020016000206007018190555081600260008c815260200190815260200160002060080181905550876040518082805190602001908083835b60208310151561063f578051825260208201915060208101905060208303925061061a565b6001836020036101000a03801982511681845116808217855250505050505090500191505060405180910390207f1ff313b898b7f5ec4599d1b098cabf756567e33197790d26a00a78b7099f7be18b6040518082815260200191505060405180910390a2600190509998505050505050505050565b6000818154811015156106c357fe5b906000526020600020016000915090505481565b828054600181600116156101000203166002900490600052602060002090601f016020900481019282601f1061071857805160ff1916838001178555610746565b82800160010185558215610746579182015b8281111561074557825182559160200191906001019061072a565b5b5090506107539190610757565b5090565b61077991905b8082111561077557600081600090555060010161075d565b5090565b905600a165627a7a723058202b74150a4e5dfbfb4dd685d7e36a24aca06030049fa54f680805a68a26c1e7bc0029",
  "source": "pragma solidity ^0.4.4;\r\n\r\nimport \"./initial.sol\";\r\n\r\ncontract entrygate {\r\n\r\n   /*===================================================STRINGS===========================================================*/\r\n    struct EntryGate{\r\n        string FarmerName;\r\n        string FarmerOTS;\r\n        string FarmerAddress;\r\n        string FarmerMandi;\r\n        string FarmerState;\r\n        string ProductName;\r\n        string ProductQuality;\r\n        int ProductBagSize;\r\n        int ProductNoBags;\r\n    }\r\n\r\n    int[] public LotNumber; \r\n    initial InitialContract;\r\n    /*===================================================MAPPINGS===========================================================*/\r\n    \r\n    //Mapping for lot number to data of entry gate\r\n    mapping(int => EntryGate) private FarmerEntryGate;\r\n    \r\n\r\n    /*===================================================EVENTS===========================================================*/\r\n    \r\n    //Event for adding entry gate data\r\n    event DataIntoEntryGate(\r\n       string indexed _ots,\r\n       int lotnumber\r\n    );\r\n\r\n    /*===================================================FUNCTIONS===========================================================*/\r\n\r\n    constructor(initial _initialcontract) public {\r\n        InitialContract = _initialcontract;\r\n    }\r\n    \r\n    // internal function to compare strings \r\n    function stringsEqual(string memory _a, string memory _b) public pure returns (bool) {\r\n        bytes memory a = bytes(_a);\r\n        bytes memory b = bytes(_b);\r\n        if(a.length != b.length)\r\n            return false;\r\n        for (uint i=0; i < a.length; i++)\r\n        {\r\n            if(a[i] != b[i])\r\n                return false;\r\n        }\r\n        return true;\r\n    }\r\n   \r\n    //Function for adding data of EntryGate\r\n    function AddEntryGate(int lotnumber, string fname, string fots, string fmandi, string fstate, string pname, string pquality, int pbs, int pnobag) public payable returns(bool) {\r\n\r\n        LotNumber.push(lotnumber);\r\n\r\n        FarmerEntryGate[lotnumber].FarmerName = fname;\r\n        FarmerEntryGate[lotnumber].FarmerOTS = fots;\r\n        FarmerEntryGate[lotnumber].FarmerMandi = fmandi;\r\n        FarmerEntryGate[lotnumber].FarmerState = fstate;\r\n        FarmerEntryGate[lotnumber].ProductName = pname;\r\n        FarmerEntryGate[lotnumber].ProductQuality = pquality;\r\n        FarmerEntryGate[lotnumber].ProductBagSize = pbs;\r\n        FarmerEntryGate[lotnumber].ProductNoBags = pnobag;\r\n        emit DataIntoEntryGate(fots, lotnumber);\r\n        return true;\r\n    }\r\n\r\n\r\n\r\n}",
  "sourcePath": "C:\\Enam1\\contracts\\entrygate.sol",
  "compiler": {
    "name": "solc",
    "version": "0.4.24+commit.e67f0147.Emscripten.clang"
  },
  "schemaVersion": "2.0.1",
  "updatedAt": "2018-11-10T09:16:55.035Z"
}