{
  "contractName": "initial",
  "abi": [
    {
      "constant": true,
      "inputs": [
        {
          "name": "",
          "type": "address"
        }
      ],
      "name": "AllCheckHash",
      "outputs": [
        {
          "name": "",
          "type": "string"
        }
      ],
      "payable": false,
      "stateMutability": "view",
      "type": "function"
    },
    {
      "constant": true,
      "inputs": [
        {
          "name": "",
          "type": "address"
        }
      ],
      "name": "GAllCheckHash",
      "outputs": [
        {
          "name": "",
          "type": "bool"
        }
      ],
      "payable": false,
      "stateMutability": "view",
      "type": "function"
    },
    {
      "constant": true,
      "inputs": [
        {
          "name": "",
          "type": "uint256"
        }
      ],
      "name": "LotNumber",
      "outputs": [
        {
          "name": "",
          "type": "int256"
        }
      ],
      "payable": false,
      "stateMutability": "view",
      "type": "function"
    },
    {
      "inputs": [],
      "payable": false,
      "stateMutability": "nonpayable",
      "type": "constructor"
    },
    {
      "anonymous": false,
      "inputs": [
        {
          "indexed": true,
          "name": "_owner",
          "type": "address"
        },
        {
          "indexed": false,
          "name": "CheckHash",
          "type": "string"
        }
      ],
      "name": "GHashEvent",
      "type": "event"
    },
    {
      "anonymous": false,
      "inputs": [
        {
          "indexed": true,
          "name": "_owner",
          "type": "address"
        },
        {
          "indexed": false,
          "name": "uname",
          "type": "string"
        }
      ],
      "name": "RegisterEvent",
      "type": "event"
    },
    {
      "anonymous": false,
      "inputs": [
        {
          "indexed": true,
          "name": "_ots",
          "type": "string"
        },
        {
          "indexed": false,
          "name": "lotnumber",
          "type": "int256"
        }
      ],
      "name": "DataIntoEntryGate",
      "type": "event"
    },
    {
      "constant": true,
      "inputs": [
        {
          "name": "_a",
          "type": "string"
        },
        {
          "name": "_b",
          "type": "string"
        }
      ],
      "name": "stringsEqual",
      "outputs": [
        {
          "name": "",
          "type": "bool"
        }
      ],
      "payable": false,
      "stateMutability": "pure",
      "type": "function"
    },
    {
      "constant": false,
      "inputs": [
        {
          "name": "chash",
          "type": "string"
        }
      ],
      "name": "addCheckHash",
      "outputs": [
        {
          "name": "",
          "type": "bool"
        }
      ],
      "payable": true,
      "stateMutability": "payable",
      "type": "function"
    },
    {
      "constant": true,
      "inputs": [],
      "name": "hasGhash",
      "outputs": [
        {
          "name": "",
          "type": "string"
        }
      ],
      "payable": false,
      "stateMutability": "view",
      "type": "function"
    },
    {
      "constant": false,
      "inputs": [
        {
          "name": "uname",
          "type": "string"
        },
        {
          "name": "CheckGhash",
          "type": "string"
        },
        {
          "name": "actor",
          "type": "string"
        },
        {
          "name": "gender",
          "type": "string"
        },
        {
          "name": "password",
          "type": "string"
        }
      ],
      "name": "addMember",
      "outputs": [
        {
          "name": "",
          "type": "bool"
        }
      ],
      "payable": true,
      "stateMutability": "payable",
      "type": "function"
    },
    {
      "constant": false,
      "inputs": [
        {
          "name": "uname",
          "type": "string"
        },
        {
          "name": "password",
          "type": "string"
        }
      ],
      "name": "checkMember",
      "outputs": [
        {
          "name": "",
          "type": "uint256"
        },
        {
          "name": "",
          "type": "string"
        }
      ],
      "payable": true,
      "stateMutability": "payable",
      "type": "function"
    },
    {
      "constant": false,
      "inputs": [
        {
          "name": "lotnumber",
          "type": "int256"
        },
        {
          "name": "fname",
          "type": "string"
        },
        {
          "name": "fots",
          "type": "string"
        },
        {
          "name": "fmandi",
          "type": "string"
        },
        {
          "name": "fstate",
          "type": "string"
        },
        {
          "name": "pname",
          "type": "string"
        },
        {
          "name": "pquality",
          "type": "string"
        },
        {
          "name": "pbs",
          "type": "int256"
        },
        {
          "name": "pnobag",
          "type": "int256"
        }
      ],
      "name": "AddEntryGate",
      "outputs": [
        {
          "name": "",
          "type": "bool"
        }
      ],
      "payable": true,
      "stateMutability": "payable",
      "type": "function"
    },
    {
      "constant": false,
      "inputs": [
        {
          "name": "fots",
          "type": "string"
        }
      ],
      "name": "GetLotCount",
      "outputs": [
        {
          "name": "",
          "type": "uint256"
        }
      ],
      "payable": false,
      "stateMutability": "nonpayable",
      "type": "function"
    },
    {
      "constant": false,
      "inputs": [
        {
          "name": "lotnumber",
          "type": "int256"
        }
      ],
      "name": "ChangeStatus",
      "outputs": [
        {
          "name": "",
          "type": "bool"
        }
      ],
      "payable": false,
      "stateMutability": "nonpayable",
      "type": "function"
    },
    {
      "constant": false,
      "inputs": [
        {
          "name": "lotnumber",
          "type": "int256"
        }
      ],
      "name": "DenyProduct",
      "outputs": [
        {
          "name": "",
          "type": "bool"
        }
      ],
      "payable": false,
      "stateMutability": "nonpayable",
      "type": "function"
    },
    {
      "constant": false,
      "inputs": [
        {
          "name": "index",
          "type": "uint256"
        }
      ],
      "name": "FarmerGetProduct",
      "outputs": [
        {
          "name": "",
          "type": "int256"
        },
        {
          "name": "",
          "type": "string"
        },
        {
          "name": "",
          "type": "string"
        },
        {
          "name": "",
          "type": "string"
        },
        {
          "name": "",
          "type": "string"
        },
        {
          "name": "",
          "type": "int256"
        },
        {
          "name": "",
          "type": "int256"
        },
        {
          "name": "",
          "type": "int256"
        }
      ],
      "payable": false,
      "stateMutability": "nonpayable",
      "type": "function"
    }
  ],
  "bytecode": "0x608060405234801561001057600080fd5b506000600260003373ffffffffffffffffffffffffffffffffffffffff1673ffffffffffffffffffffffffffffffffffffffff16815260200190815260200160002060050160006101000a81548160ff0219169083151502179055506125f88061007b6000396000f3006080604052600436106100c5576000357c0100000000000000000000000000000000000000000000000000000000900463ffffffff16806306e1d091146100ca57806313d199501461013e5780631748116c14610205578063224654bb1461024a5780633498f6ce146104505780635e149367146105dc5780636d8562d3146107cc5780638b14a5c914610888578063a40d596a146109aa578063c040a29b14610a05578063e4851efb14610a95578063fb723d5914610ad6578063ff20647214610b53575b600080fd5b610124600480360381019080803590602001908201803590602001908080601f0160208091040260200160405190810160405280939291908181526020018383808284378201915050505050509192919290505050610b98565b604051808215151515815260200191505060405180910390f35b34801561014a57600080fd5b506101eb600480360381019080803590602001908201803590602001908080601f0160208091040260200160405190810160405280939291908181526020018383808284378201915050505050509192919290803590602001908201803590602001908080601f0160208091040260200160405190810160405280939291908181526020018383808284378201915050505050509192919290505050610d5b565b604051808215151515815260200191505060405180910390f35b34801561021157600080fd5b5061023060048036038101908080359060200190929190505050610eab565b604051808215151515815260200191505060405180910390f35b34801561025657600080fd5b5061027560048036038101908080359060200190929190505050610ed1565b604051808981526020018060200180602001806020018060200188815260200187815260200186815260200185810385528c818151815260200191508051906020019080838360005b838110156102d95780820151818401526020810190506102be565b50505050905090810190601f1680156103065780820380516001836020036101000a031916815260200191505b5085810384528b818151815260200191508051906020019080838360005b8381101561033f578082015181840152602081019050610324565b50505050905090810190601f16801561036c5780820380516001836020036101000a031916815260200191505b5085810383528a818151815260200191508051906020019080838360005b838110156103a557808201518184015260208101905061038a565b50505050905090810190601f1680156103d25780820380516001836020036101000a031916815260200191505b50858103825289818151815260200191508051906020019080838360005b8381101561040b5780820151818401526020810190506103f0565b50505050905090810190601f1680156104385780820380516001836020036101000a031916815260200191505b509c5050505050505050505050505060405180910390f35b6105c2600480360381019080803590602001908201803590602001908080601f0160208091040260200160405190810160405280939291908181526020018383808284378201915050505050509192919290803590602001908201803590602001908080601f0160208091040260200160405190810160405280939291908181526020018383808284378201915050505050509192919290803590602001908201803590602001908080601f0160208091040260200160405190810160405280939291908181526020018383808284378201915050505050509192919290803590602001908201803590602001908080601f0160208091040260200160405190810160405280939291908181526020018383808284378201915050505050509192919290803590602001908201803590602001908080601f0160208091040260200160405190810160405280939291908181526020018383808284378201915050505050509192919290505050611833565b604051808215151515815260200191505060405180910390f35b6107b260048036038101908080359060200190929190803590602001908201803590602001908080601f0160208091040260200160405190810160405280939291908181526020018383808284378201915050505050509192919290803590602001908201803590602001908080601f0160208091040260200160405190810160405280939291908181526020018383808284378201915050505050509192919290803590602001908201803590602001908080601f0160208091040260200160405190810160405280939291908181526020018383808284378201915050505050509192919290803590602001908201803590602001908080601f0160208091040260200160405190810160405280939291908181526020018383808284378201915050505050509192919290803590602001908201803590602001908080601f0160208091040260200160405190810160405280939291908181526020018383808284378201915050505050509192919290803590602001908201803590602001908080601f01602080910402602001604051908101604052809392919081815260200183838082843782019150505050505091929192908035906020019092919080359060200190929190505050611c4b565b604051808215151515815260200191505060405180910390f35b3480156107d857600080fd5b5061080d600480360381019080803573ffffffffffffffffffffffffffffffffffffffff169060200190929190505050611f10565b6040518080602001828103825283818151815260200191508051906020019080838360005b8381101561084d578082015181840152602081019050610832565b50505050905090810190601f16801561087a5780820380516001836020036101000a031916815260200191505b509250505060405180910390f35b610928600480360381019080803590602001908201803590602001908080601f0160208091040260200160405190810160405280939291908181526020018383808284378201915050505050509192919290803590602001908201803590602001908080601f0160208091040260200160405190810160405280939291908181526020018383808284378201915050505050509192919290505050611fc0565b6040518083815260200180602001828103825283818151815260200191508051906020019080838360005b8381101561096e578082015181840152602081019050610953565b50505050905090810190601f16801561099b5780820380516001836020036101000a031916815260200191505b50935050505060405180910390f35b3480156109b657600080fd5b506109eb600480360381019080803573ffffffffffffffffffffffffffffffffffffffff1690602001909291905050506122cc565b604051808215151515815260200191505060405180910390f35b348015610a1157600080fd5b50610a1a6122ec565b6040518080602001828103825283818151815260200191508051906020019080838360005b83811015610a5a578082015181840152602081019050610a3f565b50505050905090810190601f168015610a875780820380516001836020036101000a031916815260200191505b509250505060405180910390f35b348015610aa157600080fd5b50610ac060048036038101908080359060200190929190505050612462565b6040518082815260200191505060405180910390f35b348015610ae257600080fd5b50610b3d600480360381019080803590602001908201803590602001908080601f0160208091040260200160405190810160405280939291908181526020018383808284378201915050505050509192919290505050612485565b6040518082815260200191505060405180910390f35b348015610b5f57600080fd5b50610b7e60048036038101908080359060200190929190505050612500565b604051808215151515815260200191505060405180910390f35b6000600460003373ffffffffffffffffffffffffffffffffffffffff1673ffffffffffffffffffffffffffffffffffffffff16815260200190815260200160002060009054906101000a900460ff16151515610bf357600080fd5b81600360003373ffffffffffffffffffffffffffffffffffffffff1673ffffffffffffffffffffffffffffffffffffffff1681526020019081526020016000209080519060200190610c46929190612527565b506001600460003373ffffffffffffffffffffffffffffffffffffffff1673ffffffffffffffffffffffffffffffffffffffff16815260200190815260200160002060006101000a81548160ff0219169083151502179055503373ffffffffffffffffffffffffffffffffffffffff167f504baa72f7e77f1095c361ce108f63d27e19ddb9164fa50fb1c48a7e5408b183836040518080602001828103825283818151815260200191508051906020019080838360005b83811015610d18578082015181840152602081019050610cfd565b50505050905090810190601f168015610d455780820380516001836020036101000a031916815260200191505b509250505060405180910390a260019050919050565b6000606080600085925084915081518351141515610d7c5760009350610ea2565b600090505b8251811015610e9d578181815181101515610d9857fe5b9060200101517f010000000000000000000000000000000000000000000000000000000000000090047f0100000000000000000000000000000000000000000000000000000000000000027effffffffffffffffffffffffffffffffffffffffffffffffffffffffffffff19168382815181101515610e1357fe5b9060200101517f010000000000000000000000000000000000000000000000000000000000000090047f0100000000000000000000000000000000000000000000000000000000000000027effffffffffffffffffffffffffffffffffffffffffffffffffffffffffffff1916141515610e905760009350610ea2565b8080600101915050610d81565b600193505b50505092915050565b600060058060008481526020019081526020016000206009018190555060019050919050565b60006060806060806000806000806000600360003373ffffffffffffffffffffffffffffffffffffffff1673ffffffffffffffffffffffffffffffffffffffff16815260200190815260200160002091508a90506006826040518082805460018160011615610100020316600290048015610f835780601f10610f61576101008083540402835291820191610f83565b820191906000526020600020905b815481529060010190602001808311610f6f575b505091505090815260200160405180910390206000018054905081101561171f576005600060068460405180828054600181600116156101000203166002900480156110065780601f10610fe4576101008083540402835291820191611006565b820191906000526020600020905b815481529060010190602001808311610ff2575b505091505090815260200160405180910390206000018381548110151561102957fe5b90600052602060002001548152602001908152602001600020600901546005600060068560405180828054600181600116156101000203166002900480156110a85780601f106110865761010080835404028352918201916110a8565b820191906000526020600020905b815481529060010190602001808311611094575b50509150509081526020016040518091039020600001848154811015156110cb57fe5b906000526020600020015481526020019081526020016000206003016005600060068660405180828054600181600116156101000203166002900480156111495780601f10611127576101008083540402835291820191611149565b820191906000526020600020905b815481529060010190602001808311611135575b505091505090815260200160405180910390206000018581548110151561116c57fe5b906000526020600020015481526020019081526020016000206004016005600060068760405180828054600181600116156101000203166002900480156111ea5780601f106111c85761010080835404028352918201916111ea565b820191906000526020600020905b8154815290600101906020018083116111d6575b505091505090815260200160405180910390206000018681548110151561120d57fe5b9060005260206000200154815260200190815260200160002060050160056000600688604051808280546001816001161561010002031660029004801561128b5780601f1061126957610100808354040283529182019161128b565b820191906000526020600020905b815481529060010190602001808311611277575b50509150509081526020016040518091039020600001878154811015156112ae57fe5b9060005260206000200154815260200190815260200160002060060160056000600689604051808280546001816001161561010002031660029004801561132c5780601f1061130a57610100808354040283529182019161132c565b820191906000526020600020905b815481529060010190602001808311611318575b505091505090815260200160405180910390206000018881548110151561134f57fe5b90600052602060002001548152602001908152602001600020600801546005600060068a60405180828054600181600116156101000203166002900480156113ce5780601f106113ac5761010080835404028352918201916113ce565b820191906000526020600020905b8154815290600101906020018083116113ba575b50509150509081526020016040518091039020600001898154811015156113f157fe5b9060005260206000200154815260200190815260200160002060070154600689604051808280546001816001161561010002031660029004801561146c5780601f1061144a57610100808354040283529182019161146c565b820191906000526020600020905b815481529060010190602001808311611458575b505091505090815260200160405180910390206000018881548110151561148f57fe5b9060005260206000200154868054600181600116156101000203166002900480601f01602080910402602001604051908101604052809291908181526020018280546001816001161561010002031660029004801561152f5780601f106115045761010080835404028352916020019161152f565b820191906000526020600020905b81548152906001019060200180831161151257829003601f168201915b50505050509650858054600181600116156101000203166002900480601f0160208091040260200160405190810160405280929190818152602001828054600181600116156101000203166002900480156115cb5780601f106115a0576101008083540402835291602001916115cb565b820191906000526020600020905b8154815290600101906020018083116115ae57829003601f168201915b50505050509550848054600181600116156101000203166002900480601f0160208091040260200160405190810160405280929190818152602001828054600181600116156101000203166002900480156116675780601f1061163c57610100808354040283529160200191611667565b820191906000526020600020905b81548152906001019060200180831161164a57829003601f168201915b50505050509450838054600181600116156101000203166002900480601f0160208091040260200160405190810160405280929190818152602001828054600181600116156101000203166002900480156117035780601f106116d857610100808354040283529160200191611703565b820191906000526020600020905b8154815290600101906020018083116116e657829003601f168201915b5050505050935099509950995099509950995099509950611826565b6000806000808393506040805190810160405280600481526020017f6e756c6c000000000000000000000000000000000000000000000000000000008152509291906040805190810160405280600481526020017f6e756c6c000000000000000000000000000000000000000000000000000000008152509291906040805190810160405280600481526020017f6e756c6c000000000000000000000000000000000000000000000000000000008152509291906040805190810160405280600481526020017f6e756c6c00000000000000000000000000000000000000000000000000000000815250929190829250819150809050995099509950995099509950995099505b5050919395975091939597565b6000600260003373ffffffffffffffffffffffffffffffffffffffff1673ffffffffffffffffffffffffffffffffffffffff16815260200190815260200160002060050160009054906101000a900460ff1615151561189157600080fd5b611972600360003373ffffffffffffffffffffffffffffffffffffffff1673ffffffffffffffffffffffffffffffffffffffff1681526020019081526020016000208054600181600116156101000203166002900480601f0160208091040260200160405190810160405280929190818152602001828054600181600116156101000203166002900480156119675780601f1061193c57610100808354040283529160200191611967565b820191906000526020600020905b81548152906001019060200180831161194a57829003601f168201915b505050505086610d5b565b151561197d57600080fd5b85600260003373ffffffffffffffffffffffffffffffffffffffff1673ffffffffffffffffffffffffffffffffffffffff16815260200190815260200160002060000190805190602001906119d3929190612527565b5084600260003373ffffffffffffffffffffffffffffffffffffffff1673ffffffffffffffffffffffffffffffffffffffff1681526020019081526020016000206001019080519060200190611a2a929190612527565b5083600260003373ffffffffffffffffffffffffffffffffffffffff1673ffffffffffffffffffffffffffffffffffffffff1681526020019081526020016000206004019080519060200190611a81929190612527565b5082600260003373ffffffffffffffffffffffffffffffffffffffff1673ffffffffffffffffffffffffffffffffffffffff1681526020019081526020016000206002019080519060200190611ad8929190612527565b5081600260003373ffffffffffffffffffffffffffffffffffffffff1673ffffffffffffffffffffffffffffffffffffffff1681526020019081526020016000206003019080519060200190611b2f929190612527565b506001600260003373ffffffffffffffffffffffffffffffffffffffff1673ffffffffffffffffffffffffffffffffffffffff16815260200190815260200160002060050160006101000a81548160ff0219169083151502179055503373ffffffffffffffffffffffffffffffffffffffff167f2769f6028e34d1d2f6a7d82379707cc039c15c5f501e657476ad755f6b7fa0ed876040518080602001828103825283818151815260200191508051906020019080838360005b83811015611c04578082015181840152602081019050611be9565b50505050905090810190601f168015611c315780820380516001836020036101000a031916815260200191505b509250505060405180910390a26001905095945050505050565b600060018a90806001815401808255809150509060018203906000526020600020016000909192909190915055506006886040518082805190602001908083835b602083101515611cb15780518252602082019150602081019050602083039250611c8c565b6001836020036101000a03801982511681845116808217855250505050505090500191505090815260200160405180910390206000018a908060018154018082558091505090600182039060005260206000200160009091929091909150555088600560008c81526020019081526020016000206000019080519060200190611d3b929190612527565b5087600560008c81526020019081526020016000206001019080519060200190611d66929190612527565b5086600560008c81526020019081526020016000206003019080519060200190611d91929190612527565b5085600560008c81526020019081526020016000206004019080519060200190611dbc929190612527565b5084600560008c81526020019081526020016000206005019080519060200190611de7929190612527565b5083600560008c81526020019081526020016000206006019080519060200190611e12929190612527565b5082600560008c81526020019081526020016000206007018190555081600560008c8152602001908152602001600020600801819055506000600560008c815260200190815260200160002060090181905550876040518082805190602001908083835b602083101515611e9b5780518252602082019150602081019050602083039250611e76565b6001836020036101000a03801982511681845116808217855250505050505090500191505060405180910390207f1ff313b898b7f5ec4599d1b098cabf756567e33197790d26a00a78b7099f7be18b6040518082815260200191505060405180910390a2600190509998505050505050505050565b60036020528060005260406000206000915090508054600181600116156101000203166002900480601f016020809104026020016040519081016040528092919081815260200182805460018160011615610100020316600290048015611fb85780601f10611f8d57610100808354040283529160200191611fb8565b820191906000526020600020905b815481529060010190602001808311611f9b57829003601f168201915b505050505081565b600060606120a8600260003373ffffffffffffffffffffffffffffffffffffffff1673ffffffffffffffffffffffffffffffffffffffff1681526020019081526020016000206000018054600181600116156101000203166002900480601f01602080910402602001604051908101604052809291908181526020018280546001816001161561010002031660029004801561209d5780601f106120725761010080835404028352916020019161209d565b820191906000526020600020905b81548152906001019060200180831161208057829003601f168201915b505050505085610d5b565b80156121945750612193600260003373ffffffffffffffffffffffffffffffffffffffff1673ffffffffffffffffffffffffffffffffffffffff1681526020019081526020016000206003018054600181600116156101000203166002900480601f0160208091040260200160405190810160405280929190818152602001828054600181600116156101000203166002900480156121885780601f1061215d57610100808354040283529160200191612188565b820191906000526020600020905b81548152906001019060200180831161216b57829003601f168201915b505050505084610d5b565b5b15612285576000600260003373ffffffffffffffffffffffffffffffffffffffff1673ffffffffffffffffffffffffffffffffffffffff168152602001908152602001600020600401819150808054600181600116156101000203166002900480601f0160208091040260200160405190810160405280929190818152602001828054600181600116156101000203166002900480156122755780601f1061224a57610100808354040283529160200191612275565b820191906000526020600020905b81548152906001019060200180831161225857829003601f168201915b50505050509050915091506122c5565b60018090506040805190810160405280600481526020017f6e756c6c00000000000000000000000000000000000000000000000000000000815250915091505b9250929050565b60046020528060005260406000206000915054906101000a900460ff1681565b606060011515600460003373ffffffffffffffffffffffffffffffffffffffff1673ffffffffffffffffffffffffffffffffffffffff16815260200190815260200160002060009054906101000a900460ff161515141561242657600360003373ffffffffffffffffffffffffffffffffffffffff1673ffffffffffffffffffffffffffffffffffffffff1681526020019081526020016000208054600181600116156101000203166002900480601f01602080910402602001604051908101604052809291908181526020018280546001816001161561010002031660029004801561241a5780601f106123ef5761010080835404028352916020019161241a565b820191906000526020600020905b8154815290600101906020018083116123fd57829003601f168201915b5050505050905061245f565b6040805190810160405280600481526020017f6e756c6c0000000000000000000000000000000000000000000000000000000081525090505b90565b60018181548110151561247157fe5b906000526020600020016000915090505481565b60006006826040518082805190602001908083835b6020831015156124bf578051825260208201915060208101905060208303925061249a565b6001836020036101000a0380198251168184511680821785525050505050509050019150509081526020016040518091039020600001805490509050919050565b60006001600560008481526020019081526020016000206009018190555060019050919050565b828054600181600116156101000203166002900490600052602060002090601f016020900481019282601f1061256857805160ff1916838001178555612596565b82800160010185558215612596579182015b8281111561259557825182559160200191906001019061257a565b5b5090506125a391906125a7565b5090565b6125c991905b808211156125c55760008160009055506001016125ad565b5090565b905600a165627a7a7230582042374df2e69e2d4089245bf4ca1660dff650e4907f5d5d1553d8c028fb23c6900029",
  "source": "pragma solidity ^0.4.4;\r\n\r\ncontract initial {\r\n\r\n\r\n   /*==================================================STRINGS===========================================================*/\r\n    \r\n    struct Member {\r\n        string uname;\r\n        string checkGhash;\r\n        string gender;\r\n        string password;\r\n        string actor;\r\n        bool status;\r\n    }\r\n\r\n    struct EntryGate{\r\n        string FarmerName;\r\n        string FarmerOTS;\r\n        string FarmerAddress;\r\n        string FarmerMandi;\r\n        string FarmerState;\r\n        string ProductName;\r\n        string ProductQuality;\r\n        int ProductBagSize;\r\n        int ProductNoBags;\r\n        int status;\r\n    }\r\n\r\n    struct ArrayLotNumber{\r\n        int[] FarmerLOTArray;\r\n    }\r\n\r\n\r\n  \r\n    /*===================================================ARRAYS===========================================================*/\r\n    //List of all farmers\r\n    Member[] allMembers;\r\n    int[] public LotNumber;\r\n\r\n    /*===================================================MAPPINGS===========================================================*/\r\n    \r\n    //Mapping for address to Farmer deatails stored in structure\r\n    mapping(address => Member) private MemberAddress;\r\n    //Mappping for storing OTS \r\n    mapping(address => string) public AllCheckHash;\r\n    //Mapping for checking ony OTS issued for each user\r\n    mapping(address => bool) public GAllCheckHash;\r\n    //Mapping for lot number to data of entry gate\r\n    mapping(int => EntryGate) private FarmerEntryGate;\r\n    //Mapping for OTS to FarmerProduct's Lot Number so to store the Farmer's product in his database\r\n    mapping(string => ArrayLotNumber) FarmerLOTNo;\r\n   \r\n\r\n    /*====================================================EVENTS==============================================================*/\r\n    //Event for generaring OTS\r\n    event GHashEvent(\r\n        address indexed _owner,\r\n        string CheckHash\r\n    );\r\n    //Event for registering user\r\n    event RegisterEvent(\r\n        address indexed _owner,\r\n        string uname\r\n    );\r\n    //Event for adding entry gate data\r\n    event DataIntoEntryGate(\r\n       string indexed _ots,\r\n       int lotnumber\r\n    );\r\n\r\n    /*=====================================================MODIFIERS============================================================*/\r\n   \r\n   //For checking the status of OTS\r\n    modifier checkAllHash() {\r\n        require(!GAllCheckHash[msg.sender]);\r\n        _;\r\n    }\r\n\r\n    //For checking if member is already register or not\r\n    modifier checkReg() {\r\n        require(!MemberAddress[msg.sender].status);\r\n        _;\r\n    }\r\n    \r\n    /*=====================================================CONSTRUCTOR============================================================*/\r\n    constructor() public {\r\n        MemberAddress[msg.sender].status = false;\r\n        \r\n    }\r\n\r\n    /*=====================================================FUNCTIONS============================================================*/\r\n    \r\n    // internal function to compare strings \r\n    function stringsEqual(string memory _a, string memory _b) public pure returns (bool) {\r\n        bytes memory a = bytes(_a);\r\n        bytes memory b = bytes(_b);\r\n        if(a.length != b.length)\r\n            return false;\r\n        for (uint i=0; i < a.length; i++)\r\n        {\r\n            if(a[i] != b[i])\r\n                return false;\r\n        }\r\n        return true;\r\n    }\r\n\r\n  \r\n    //This function return unique hash to the farmer as prove of farmer\r\n    function addCheckHash(string chash) public payable checkAllHash returns(bool) {\r\n        AllCheckHash[msg.sender] = chash;\r\n        GAllCheckHash[msg.sender] = true;\r\n        emit  GHashEvent(msg.sender,chash);\r\n        return true;\r\n    }\r\n\r\n    function hasGhash() public view returns(string) {\r\n        if(GAllCheckHash[msg.sender] == true)\r\n            return AllCheckHash[msg.sender];\r\n        return \"null\";  \r\n    }\r\n  \r\n    //function for adding farmer to the system\r\n    // return 6 if government does not approve it as farmer\r\n    // return 1 when it get overflowed\r\n    // return 0 on success\r\n    function addMember(string uname, string CheckGhash, string actor, string gender, string password) public payable checkReg returns(bool) {\r\n        //checking whether it is farmer otn not\r\n        require(stringsEqual(AllCheckHash[msg.sender],CheckGhash));\r\n       \r\n        MemberAddress[msg.sender].uname = uname;\r\n        MemberAddress[msg.sender].checkGhash = CheckGhash;\r\n        MemberAddress[msg.sender].actor = actor;\r\n        MemberAddress[msg.sender].gender = gender;\r\n        MemberAddress[msg.sender].password = password;\r\n        MemberAddress[msg.sender].status = true;\r\n        emit RegisterEvent(msg.sender,uname);\r\n        return true;\r\n      \r\n    }\r\n    \r\n    //function for checking the loging system\r\n    function checkMember(string uname, string password) public payable returns(uint, string) {\r\n        if(stringsEqual(MemberAddress[msg.sender].uname,uname) && stringsEqual(MemberAddress[msg.sender].password, password))\r\n        {\r\n            return (0, MemberAddress[msg.sender].actor);\r\n        }\r\n        return (1, \"null\");\r\n        \r\n    }\r\n\r\n    //--------FUNCTIONS FOR ENTRY GATE------//\r\n    \r\n    //Function for adding data of EntryGate\r\n    function AddEntryGate(int lotnumber, string fname, string fots, string fmandi, string fstate, string pname, string pquality, int pbs, int pnobag) public payable returns(bool) {\r\n\r\n        LotNumber.push(lotnumber);\r\n\r\n        FarmerLOTNo[fots].FarmerLOTArray.push(lotnumber);\r\n      \r\n        FarmerEntryGate[lotnumber].FarmerName = fname;\r\n        FarmerEntryGate[lotnumber].FarmerOTS = fots;\r\n        FarmerEntryGate[lotnumber].FarmerMandi = fmandi;\r\n        FarmerEntryGate[lotnumber].FarmerState = fstate;\r\n        FarmerEntryGate[lotnumber].ProductName = pname;\r\n        FarmerEntryGate[lotnumber].ProductQuality = pquality;\r\n        FarmerEntryGate[lotnumber].ProductBagSize = pbs;\r\n        FarmerEntryGate[lotnumber].ProductNoBags = pnobag;\r\n        FarmerEntryGate[lotnumber].status = 0;\r\n        emit DataIntoEntryGate(fots, lotnumber);\r\n        return true;\r\n    }\r\n\r\n   //Function for  geting total count of LOTNUMBER of perticular farmer\r\n    function GetLotCount(string fots) public returns(uint) {\r\n        return FarmerLOTNo[fots].FarmerLOTArray.length;\r\n    }\r\n\r\n    //Function for changing status after farmer confirmed\r\n    function ChangeStatus(int lotnumber) public returns(bool)\r\n    {\r\n        FarmerEntryGate[lotnumber].status = 1;  \r\n        return true;\r\n    }\r\n\r\n    //Function for changing status after farmer rejected the product\r\n    function DenyProduct(int lotnumber) public returns(bool)\r\n    {\r\n        FarmerEntryGate[lotnumber].status = 5;  \r\n        return true;\r\n    }\r\n    \r\n    //Function for returning product details to Farmer\r\n    function FarmerGetProduct(uint index) public returns(int, string, string, string, string ,int, int, int) {\r\n\r\n        string ots1 = AllCheckHash[msg.sender];\r\n\r\n        for(uint i=index;i<FarmerLOTNo[ots1].FarmerLOTArray.length;i++)\r\n        {\r\n            return (FarmerEntryGate[FarmerLOTNo[ots1].FarmerLOTArray[i]].status, FarmerEntryGate[FarmerLOTNo[ots1].FarmerLOTArray[i]].FarmerMandi, FarmerEntryGate[FarmerLOTNo[ots1].FarmerLOTArray[i]].FarmerState, FarmerEntryGate[FarmerLOTNo[ots1].FarmerLOTArray[i]].ProductName,  FarmerEntryGate[FarmerLOTNo[ots1].FarmerLOTArray[i]].ProductQuality, FarmerEntryGate[FarmerLOTNo[ots1].FarmerLOTArray[i]].ProductNoBags, FarmerEntryGate[FarmerLOTNo[ots1].FarmerLOTArray[i]].ProductBagSize, FarmerLOTNo[ots1].FarmerLOTArray[i]);\r\n        }\r\n        \r\n        return (0,\"null\",\"null\",\"null\",\"null\",0,0,0);  \r\n    }\r\n    \r\n    //-----ENDING-----//\r\n\r\n\r\n    \r\n    \r\n\r\n}",
  "sourcePath": "C:\\Enam1\\contracts\\initial.sol",
  "compiler": {
    "name": "solc",
    "version": "0.4.24+commit.e67f0147.Emscripten.clang"
  },
  "schemaVersion": "2.0.1",
  "updatedAt": "2018-11-10T09:16:55.044Z"
}