{
  "contractName": "initial",
  "abi": [
    {
      "constant": true,
      "inputs": [
        {
          "name": "",
          "type": "address"
        }
      ],
      "name": "AllCheckHash",
      "outputs": [
        {
          "name": "",
          "type": "string"
        }
      ],
      "payable": false,
      "stateMutability": "view",
      "type": "function"
    },
    {
      "constant": true,
      "inputs": [
        {
          "name": "",
          "type": "address"
        }
      ],
      "name": "GAllCheckHash",
      "outputs": [
        {
          "name": "",
          "type": "bool"
        }
      ],
      "payable": false,
      "stateMutability": "view",
      "type": "function"
    },
    {
      "constant": true,
      "inputs": [
        {
          "name": "",
          "type": "uint256"
        }
      ],
      "name": "LotNumber",
      "outputs": [
        {
          "name": "",
          "type": "int256"
        }
      ],
      "payable": false,
      "stateMutability": "view",
      "type": "function"
    },
    {
      "inputs": [],
      "payable": false,
      "stateMutability": "nonpayable",
      "type": "constructor"
    },
    {
      "anonymous": false,
      "inputs": [
        {
          "indexed": true,
          "name": "_owner",
          "type": "address"
        },
        {
          "indexed": false,
          "name": "CheckHash",
          "type": "string"
        }
      ],
      "name": "GHashEvent",
      "type": "event"
    },
    {
      "anonymous": false,
      "inputs": [
        {
          "indexed": true,
          "name": "_owner",
          "type": "address"
        },
        {
          "indexed": false,
          "name": "uname",
          "type": "string"
        }
      ],
      "name": "RegisterEvent",
      "type": "event"
    },
    {
      "anonymous": false,
      "inputs": [
        {
          "indexed": true,
          "name": "_ots",
          "type": "string"
        },
        {
          "indexed": false,
          "name": "lotnumber",
          "type": "int256"
        }
      ],
      "name": "DataIntoEntryGate",
      "type": "event"
    },
    {
      "constant": true,
      "inputs": [
        {
          "name": "_a",
          "type": "string"
        },
        {
          "name": "_b",
          "type": "string"
        }
      ],
      "name": "stringsEqual",
      "outputs": [
        {
          "name": "",
          "type": "bool"
        }
      ],
      "payable": false,
      "stateMutability": "pure",
      "type": "function"
    },
    {
      "constant": false,
      "inputs": [
        {
          "name": "chash",
          "type": "string"
        }
      ],
      "name": "addCheckHash",
      "outputs": [
        {
          "name": "",
          "type": "bool"
        }
      ],
      "payable": true,
      "stateMutability": "payable",
      "type": "function"
    },
    {
      "constant": true,
      "inputs": [],
      "name": "hasGhash",
      "outputs": [
        {
          "name": "",
          "type": "string"
        }
      ],
      "payable": false,
      "stateMutability": "view",
      "type": "function"
    },
    {
      "constant": false,
      "inputs": [
        {
          "name": "uname",
          "type": "string"
        },
        {
          "name": "CheckGhash",
          "type": "string"
        },
        {
          "name": "actor",
          "type": "string"
        },
        {
          "name": "gender",
          "type": "string"
        },
        {
          "name": "password",
          "type": "string"
        }
      ],
      "name": "addMember",
      "outputs": [
        {
          "name": "",
          "type": "bool"
        }
      ],
      "payable": true,
      "stateMutability": "payable",
      "type": "function"
    },
    {
      "constant": false,
      "inputs": [
        {
          "name": "uname",
          "type": "string"
        },
        {
          "name": "password",
          "type": "string"
        }
      ],
      "name": "checkMember",
      "outputs": [
        {
          "name": "",
          "type": "uint256"
        },
        {
          "name": "",
          "type": "string"
        }
      ],
      "payable": true,
      "stateMutability": "payable",
      "type": "function"
    },
    {
      "constant": false,
      "inputs": [
        {
          "name": "lotnumber",
          "type": "int256"
        },
        {
          "name": "fname",
          "type": "string"
        },
        {
          "name": "fots",
          "type": "string"
        },
        {
          "name": "fmandi",
          "type": "string"
        },
        {
          "name": "fstate",
          "type": "string"
        },
        {
          "name": "pname",
          "type": "string"
        },
        {
          "name": "pquality",
          "type": "string"
        },
        {
          "name": "pbs",
          "type": "int256"
        },
        {
          "name": "pnobag",
          "type": "int256"
        }
      ],
      "name": "AddEntryGate",
      "outputs": [
        {
          "name": "",
          "type": "bool"
        }
      ],
      "payable": true,
      "stateMutability": "payable",
      "type": "function"
    },
    {
      "constant": false,
      "inputs": [],
      "name": "CheckStatus",
      "outputs": [
        {
          "name": "",
          "type": "string"
        },
        {
          "name": "",
          "type": "string"
        },
        {
          "name": "",
          "type": "int256"
        }
      ],
      "payable": false,
      "stateMutability": "nonpayable",
      "type": "function"
    }
  ],
  "bytecode": "0x608060405234801561001057600080fd5b506000600260003373ffffffffffffffffffffffffffffffffffffffff1673ffffffffffffffffffffffffffffffffffffffff16815260200190815260200160002060050160006101000a81548160ff021916908315150217905550611cd28061007b6000396000f3006080604052600436106100a4576000357c0100000000000000000000000000000000000000000000000000000000900463ffffffff16806306e1d091146100a957806313d19950146100d95780633498f6ce146101165780635e149367146101465780636d8562d3146101765780638b14a5c9146101b3578063a40d596a146101e4578063c040a29b14610221578063e4851efb1461024c578063f1d6739714610289575b600080fd5b6100c360048036036100be9190810190611835565b6102b6565b6040516100d09190611a93565b60405180910390f35b3480156100e557600080fd5b5061010060048036036100fb9190810190611876565b610414565b60405161010d9190611a93565b60405180910390f35b610130600480360361012b91908101906118e2565b610564565b60405161013d9190611a93565b60405180910390f35b610160600480360361015b91908101906116df565b610917565b60405161016d9190611a93565b60405180910390f35b34801561018257600080fd5b5061019d600480360361019891908101906116b6565b610b57565b6040516101aa9190611ac9565b60405180910390f35b6101cd60048036036101c89190810190611876565b610c07565b6040516101db929190611b52565b60405180910390f35b3480156101f057600080fd5b5061020b600480360361020691908101906116b6565b610f13565b6040516102189190611a93565b60405180910390f35b34801561022d57600080fd5b50610236610f33565b6040516102439190611aeb565b60405180910390f35b34801561025857600080fd5b50610273600480360361026e91908101906119d1565b6110a9565b6040516102809190611aae565b60405180910390f35b34801561029557600080fd5b5061029e6110cc565b6040516102ad93929190611b0d565b60405180910390f35b6000600460003373ffffffffffffffffffffffffffffffffffffffff1673ffffffffffffffffffffffffffffffffffffffff16815260200190815260200160002060009054906101000a900460ff1615151561031157600080fd5b81600360003373ffffffffffffffffffffffffffffffffffffffff1673ffffffffffffffffffffffffffffffffffffffff168152602001908152602001600020908051906020019061036492919061157f565b506001600460003373ffffffffffffffffffffffffffffffffffffffff1673ffffffffffffffffffffffffffffffffffffffff16815260200190815260200160002060006101000a81548160ff0219169083151502179055503373ffffffffffffffffffffffffffffffffffffffff167f504baa72f7e77f1095c361ce108f63d27e19ddb9164fa50fb1c48a7e5408b183836040516104039190611aeb565b60405180910390a260019050919050565b6000606080600085925084915081518351141515610435576000935061055b565b600090505b825181101561055657818181518110151561045157fe5b9060200101517f010000000000000000000000000000000000000000000000000000000000000090047f0100000000000000000000000000000000000000000000000000000000000000027effffffffffffffffffffffffffffffffffffffffffffffffffffffffffffff191683828151811015156104cc57fe5b9060200101517f010000000000000000000000000000000000000000000000000000000000000090047f0100000000000000000000000000000000000000000000000000000000000000027effffffffffffffffffffffffffffffffffffffffffffffffffffffffffffff1916141515610549576000935061055b565b808060010191505061043a565b600193505b50505092915050565b6000600260003373ffffffffffffffffffffffffffffffffffffffff1673ffffffffffffffffffffffffffffffffffffffff16815260200190815260200160002060050160009054906101000a900460ff161515156105c257600080fd5b6106a3600360003373ffffffffffffffffffffffffffffffffffffffff1673ffffffffffffffffffffffffffffffffffffffff1681526020019081526020016000208054600181600116156101000203166002900480601f0160208091040260200160405190810160405280929190818152602001828054600181600116156101000203166002900480156106985780601f1061066d57610100808354040283529160200191610698565b820191906000526020600020905b81548152906001019060200180831161067b57829003601f168201915b505050505086610414565b15156106ae57600080fd5b85600260003373ffffffffffffffffffffffffffffffffffffffff1673ffffffffffffffffffffffffffffffffffffffff168152602001908152602001600020600001908051906020019061070492919061157f565b5084600260003373ffffffffffffffffffffffffffffffffffffffff1673ffffffffffffffffffffffffffffffffffffffff168152602001908152602001600020600101908051906020019061075b92919061157f565b5083600260003373ffffffffffffffffffffffffffffffffffffffff1673ffffffffffffffffffffffffffffffffffffffff16815260200190815260200160002060040190805190602001906107b292919061157f565b5082600260003373ffffffffffffffffffffffffffffffffffffffff1673ffffffffffffffffffffffffffffffffffffffff168152602001908152602001600020600201908051906020019061080992919061157f565b5081600260003373ffffffffffffffffffffffffffffffffffffffff1673ffffffffffffffffffffffffffffffffffffffff168152602001908152602001600020600301908051906020019061086092919061157f565b506001600260003373ffffffffffffffffffffffffffffffffffffffff1673ffffffffffffffffffffffffffffffffffffffff16815260200190815260200160002060050160006101000a81548160ff0219169083151502179055503373ffffffffffffffffffffffffffffffffffffffff167f2769f6028e34d1d2f6a7d82379707cc039c15c5f501e657476ad755f6b7fa0ed876040516109029190611aeb565b60405180910390a26001905095945050505050565b600060018a908060018154018082558091505090600182039060005260206000200160009091929091909150555088600560008c8152602001908152602001600020600001908051906020019061096f92919061157f565b5087600560008c8152602001908152602001600020600101908051906020019061099a92919061157f565b5086600560008c815260200190815260200160002060030190805190602001906109c592919061157f565b5085600560008c815260200190815260200160002060040190805190602001906109f092919061157f565b5084600560008c81526020019081526020016000206005019080519060200190610a1b92919061157f565b5083600560008c81526020019081526020016000206006019080519060200190610a4692919061157f565b5082600560008c81526020019081526020016000206007018190555081600560008c8152602001908152602001600020600801819055506000600560008c815260200190815260200160002060090160006101000a81548160ff021916908315150217905550876040518082805190602001908083835b602083101515610ae25780518252602082019150602081019050602083039250610abd565b6001836020036101000a03801982511681845116808217855250505050505090500191505060405180910390207f1ff313b898b7f5ec4599d1b098cabf756567e33197790d26a00a78b7099f7be18b604051610b3e9190611aae565b60405180910390a2600190509998505050505050505050565b60036020528060005260406000206000915090508054600181600116156101000203166002900480601f016020809104026020016040519081016040528092919081815260200182805460018160011615610100020316600290048015610bff5780601f10610bd457610100808354040283529160200191610bff565b820191906000526020600020905b815481529060010190602001808311610be257829003601f168201915b505050505081565b60006060610cef600260003373ffffffffffffffffffffffffffffffffffffffff1673ffffffffffffffffffffffffffffffffffffffff1681526020019081526020016000206000018054600181600116156101000203166002900480601f016020809104026020016040519081016040528092919081815260200182805460018160011615610100020316600290048015610ce45780601f10610cb957610100808354040283529160200191610ce4565b820191906000526020600020905b815481529060010190602001808311610cc757829003601f168201915b505050505085610414565b8015610ddb5750610dda600260003373ffffffffffffffffffffffffffffffffffffffff1673ffffffffffffffffffffffffffffffffffffffff1681526020019081526020016000206003018054600181600116156101000203166002900480601f016020809104026020016040519081016040528092919081815260200182805460018160011615610100020316600290048015610dcf5780601f10610da457610100808354040283529160200191610dcf565b820191906000526020600020905b815481529060010190602001808311610db257829003601f168201915b505050505084610414565b5b15610ecc576000600260003373ffffffffffffffffffffffffffffffffffffffff1673ffffffffffffffffffffffffffffffffffffffff168152602001908152602001600020600401819150808054600181600116156101000203166002900480601f016020809104026020016040519081016040528092919081815260200182805460018160011615610100020316600290048015610ebc5780601f10610e9157610100808354040283529160200191610ebc565b820191906000526020600020905b815481529060010190602001808311610e9f57829003601f168201915b5050505050905091509150610f0c565b60018090506040805190810160405280600481526020017f6e756c6c00000000000000000000000000000000000000000000000000000000815250915091505b9250929050565b60046020528060005260406000206000915054906101000a900460ff1681565b606060011515600460003373ffffffffffffffffffffffffffffffffffffffff1673ffffffffffffffffffffffffffffffffffffffff16815260200190815260200160002060009054906101000a900460ff161515141561106d57600360003373ffffffffffffffffffffffffffffffffffffffff1673ffffffffffffffffffffffffffffffffffffffff1681526020019081526020016000208054600181600116156101000203166002900480601f0160208091040260200160405190810160405280929190818152602001828054600181600116156101000203166002900480156110615780601f1061103657610100808354040283529160200191611061565b820191906000526020600020905b81548152906001019060200180831161104457829003601f168201915b505050505090506110a6565b6040805190810160405280600481526020017f6e756c6c0000000000000000000000000000000000000000000000000000000081525090505b90565b6001818154811015156110b857fe5b906000526020600020016000915090505481565b606080600080600080600360003373ffffffffffffffffffffffffffffffffffffffff1673ffffffffffffffffffffffffffffffffffffffff168152602001908152602001600020925060009150600180549050821015611576576005600060018481548110151561113a57fe5b906000526020600020015481526020019081526020016000206001019050611294838054600181600116156101000203166002900480601f0160208091040260200160405190810160405280929190818152602001828054600181600116156101000203166002900480156111f05780601f106111c5576101008083540402835291602001916111f0565b820191906000526020600020905b8154815290600101906020018083116111d357829003601f168201915b5050505050828054600181600116156101000203166002900480601f01602080910402602001604051908101604052809291908181526020018280546001816001161561010002031660029004801561128a5780601f1061125f5761010080835404028352916020019161128a565b820191906000526020600020905b81548152906001019060200180831161126d57829003601f168201915b5050505050610414565b80156112da5750600560006001848154811015156112ae57fe5b9060005260206000200154815260200190815260200160002060090160009054906101000a900460ff16155b156114f8576001600560006001858154811015156112f457fe5b9060005260206000200154815260200190815260200160002060090160006101000a81548160ff0219169083151502179055506005600060018481548110151561133a57fe5b906000526020600020015481526020019081526020016000206003016005600060018581548110151561136957fe5b906000526020600020015481526020019081526020016000206005016005600060018681548110151561139857fe5b9060005260206000200154815260200190815260200160002060080154828054600181600116156101000203166002900480601f01602080910402602001604051908101604052809291908181526020018280546001816001161561010002031660029004801561144a5780601f1061141f5761010080835404028352916020019161144a565b820191906000526020600020905b81548152906001019060200180831161142d57829003601f168201915b50505050509250818054600181600116156101000203166002900480601f0160208091040260200160405190810160405280929190818152602001828054600181600116156101000203166002900480156114e65780601f106114bb576101008083540402835291602001916114e6565b820191906000526020600020905b8154815290600101906020018083116114c957829003601f168201915b50505050509150955095509550611577565b60006040805190810160405280600481526020017f6e756c6c00000000000000000000000000000000000000000000000000000000815250906040805190810160405280600481526020017f6e756c6c0000000000000000000000000000000000000000000000000000000081525090809050955095509550611577565b5b505050909192565b828054600181600116156101000203166002900490600052602060002090601f016020900481019282601f106115c057805160ff19168380011785556115ee565b828001600101855582156115ee579182015b828111156115ed5782518255916020019190600101906115d2565b5b5090506115fb91906115ff565b5090565b61162191905b8082111561161d576000816000905550600101611605565b5090565b90565b60006116308235611c11565b905092915050565b60006116448235611c31565b905092915050565b600082601f830112151561165f57600080fd5b813561167261166d82611baf565b611b82565b9150808252602083016020830185838301111561168e57600080fd5b611699838284611c45565b50505092915050565b60006116ae8235611c3b565b905092915050565b6000602082840312156116c857600080fd5b60006116d684828501611624565b91505092915050565b60008060008060008060008060006101208a8c0312156116fe57600080fd5b600061170c8c828d01611638565b99505060208a013567ffffffffffffffff81111561172957600080fd5b6117358c828d0161164c565b98505060408a013567ffffffffffffffff81111561175257600080fd5b61175e8c828d0161164c565b97505060608a013567ffffffffffffffff81111561177b57600080fd5b6117878c828d0161164c565b96505060808a013567ffffffffffffffff8111156117a457600080fd5b6117b08c828d0161164c565b95505060a08a013567ffffffffffffffff8111156117cd57600080fd5b6117d98c828d0161164c565b94505060c08a013567ffffffffffffffff8111156117f657600080fd5b6118028c828d0161164c565b93505060e06118138c828d01611638565b9250506101006118258c828d01611638565b9150509295985092959850929598565b60006020828403121561184757600080fd5b600082013567ffffffffffffffff81111561186157600080fd5b61186d8482850161164c565b91505092915050565b6000806040838503121561188957600080fd5b600083013567ffffffffffffffff8111156118a357600080fd5b6118af8582860161164c565b925050602083013567ffffffffffffffff8111156118cc57600080fd5b6118d88582860161164c565b9150509250929050565b600080600080600060a086880312156118fa57600080fd5b600086013567ffffffffffffffff81111561191457600080fd5b6119208882890161164c565b955050602086013567ffffffffffffffff81111561193d57600080fd5b6119498882890161164c565b945050604086013567ffffffffffffffff81111561196657600080fd5b6119728882890161164c565b935050606086013567ffffffffffffffff81111561198f57600080fd5b61199b8882890161164c565b925050608086013567ffffffffffffffff8111156119b857600080fd5b6119c48882890161164c565b9150509295509295909350565b6000602082840312156119e357600080fd5b60006119f1848285016116a2565b91505092915050565b611a0381611bf1565b82525050565b611a1281611bfd565b82525050565b6000611a2382611be6565b808452611a37816020860160208601611c54565b611a4081611c87565b602085010191505092915050565b6000611a5982611bdb565b808452611a6d816020860160208601611c54565b611a7681611c87565b602085010191505092915050565b611a8d81611c07565b82525050565b6000602082019050611aa860008301846119fa565b92915050565b6000602082019050611ac36000830184611a09565b92915050565b60006020820190508181036000830152611ae38184611a4e565b905092915050565b60006020820190508181036000830152611b058184611a18565b905092915050565b60006060820190508181036000830152611b278186611a18565b90508181036020830152611b3b8185611a18565b9050611b4a6040830184611a09565b949350505050565b6000604082019050611b676000830185611a84565b8181036020830152611b798184611a18565b90509392505050565b6000604051905081810181811067ffffffffffffffff82111715611ba557600080fd5b8060405250919050565b600067ffffffffffffffff821115611bc657600080fd5b601f19601f8301169050602081019050919050565b600081519050919050565b600081519050919050565b60008115159050919050565b6000819050919050565b6000819050919050565b600073ffffffffffffffffffffffffffffffffffffffff82169050919050565b6000819050919050565b6000819050919050565b82818337600083830152505050565b60005b83811015611c72578082015181840152602081019050611c57565b83811115611c81576000848401525b50505050565b6000601f19601f83011690509190505600a265627a7a723058209989692d06b044e686fd8ab696e6838410d0041bb39e9e23416c6695f31eaf556c6578706572696d656e74616cf50037",
  "source": "pragma solidity ^0.4.4;\r\npragma experimental ABIEncoderV2;\r\n\r\ncontract initial {\r\n\r\n\r\n   /*==================================================STRINGS===========================================================*/\r\n    //uname is the username of farmer\r\n    //upvotes is the upvotes given to the farmer\r\n    //password is the password for the farmer to login in the system\r\n    struct Member {\r\n        string uname;\r\n        string checkGhash;\r\n        string gender;\r\n        string password;\r\n        string actor;\r\n        bool status;\r\n    }\r\n\r\n    struct EntryGate{\r\n        string FarmerName;\r\n        string FarmerOTS;\r\n        string FarmerAddress;\r\n        string FarmerMandi;\r\n        string FarmerState;\r\n        string ProductName;\r\n        string ProductQuality;\r\n        int ProductBagSize;\r\n        int ProductNoBags;\r\n        bool status;\r\n    }\r\n  \r\n    /*===================================================ARRAYS===========================================================*/\r\n    //List of all farmers\r\n    Member[] allMembers;\r\n    int[] public LotNumber;\r\n\r\n    /*===================================================MAPPINGS===========================================================*/\r\n    \r\n    //Mapping for address to Farmer deatails stored in structure\r\n    mapping(address => Member) private MemberAddress;\r\n    //Mappping for storing OTS \r\n    mapping(address => string) public AllCheckHash;\r\n    //Mapping for checking ony OTS issued for each user\r\n    mapping(address => bool) public GAllCheckHash;\r\n    //Mapping for lot number to data of entry gate\r\n    mapping(int => EntryGate) private FarmerEntryGate;\r\n   \r\n\r\n    /*====================================================EVENTS==============================================================*/\r\n    //Event for generaring OTS\r\n    event GHashEvent(\r\n        address indexed _owner,\r\n        string CheckHash\r\n    );\r\n    //Event for registering user\r\n    event RegisterEvent(\r\n        address indexed _owner,\r\n        string uname\r\n    );\r\n    //Event for adding entry gate data\r\n    event DataIntoEntryGate(\r\n       string indexed _ots,\r\n       int lotnumber\r\n    );\r\n\r\n    /*=====================================================MODIFIERS============================================================*/\r\n   \r\n   //For checking the status of OTS\r\n    modifier checkAllHash() {\r\n        require(!GAllCheckHash[msg.sender]);\r\n        _;\r\n    }\r\n\r\n    modifier checkReg() {\r\n        require(!MemberAddress[msg.sender].status);\r\n        _;\r\n    }\r\n    \r\n    /*=====================================================CONSTRUCTOR============================================================*/\r\n    constructor() public {\r\n        MemberAddress[msg.sender].status = false;\r\n        \r\n    }\r\n\r\n    /*=====================================================FUNCTIONS============================================================*/\r\n    \r\n    // internal function to compare strings \r\n    function stringsEqual(string memory _a, string memory _b) public pure returns (bool) {\r\n        bytes memory a = bytes(_a);\r\n        bytes memory b = bytes(_b);\r\n        if(a.length != b.length)\r\n            return false;\r\n        for (uint i=0; i < a.length; i++)\r\n        {\r\n            if(a[i] != b[i])\r\n                return false;\r\n        }\r\n        return true;\r\n    }\r\n\r\n  \r\n    //This function return unique hash to the farmer as prove of farmer\r\n    function addCheckHash(string chash) public payable checkAllHash returns(bool) {\r\n        AllCheckHash[msg.sender] = chash;\r\n        GAllCheckHash[msg.sender] = true;\r\n        emit  GHashEvent(msg.sender,chash);\r\n        return true;\r\n    }\r\n\r\n    function hasGhash() public view returns(string) {\r\n        if(GAllCheckHash[msg.sender] == true)\r\n            return AllCheckHash[msg.sender];\r\n        return \"null\";  \r\n    }\r\n  \r\n    //function for adding farmer to the system\r\n    // return 6 if government does not approve it as farmer\r\n    // return 1 when it get overflowed\r\n    // return 0 on success\r\n    function addMember(string uname, string CheckGhash, string actor, string gender, string password) public payable checkReg returns(bool) {\r\n        //checking whether it is farmer otn not\r\n        require(stringsEqual(AllCheckHash[msg.sender],CheckGhash));\r\n       \r\n        MemberAddress[msg.sender].uname = uname;\r\n        MemberAddress[msg.sender].checkGhash = CheckGhash;\r\n        MemberAddress[msg.sender].actor = actor;\r\n        MemberAddress[msg.sender].gender = gender;\r\n        MemberAddress[msg.sender].password = password;\r\n        MemberAddress[msg.sender].status = true;\r\n        emit RegisterEvent(msg.sender,uname);\r\n        return true;\r\n      \r\n    }\r\n    \r\n    //function for checking the loging system\r\n    function checkMember(string uname, string password) public payable returns(uint, string) {\r\n        if(stringsEqual(MemberAddress[msg.sender].uname,uname) && stringsEqual(MemberAddress[msg.sender].password, password))\r\n        {\r\n            return (0, MemberAddress[msg.sender].actor);\r\n        }\r\n        return (1, \"null\");\r\n        \r\n    }\r\n    \r\n    //Function for adding data of EntryGate\r\n    function AddEntryGate(int lotnumber, string fname, string fots, string fmandi, string fstate, string pname, string pquality, int pbs, int pnobag) public payable returns(bool) {\r\n\r\n        LotNumber.push(lotnumber);\r\n\r\n        FarmerEntryGate[lotnumber].FarmerName = fname;\r\n        FarmerEntryGate[lotnumber].FarmerOTS = fots;\r\n        FarmerEntryGate[lotnumber].FarmerMandi = fmandi;\r\n        FarmerEntryGate[lotnumber].FarmerState = fstate;\r\n        FarmerEntryGate[lotnumber].ProductName = pname;\r\n        FarmerEntryGate[lotnumber].ProductQuality = pquality;\r\n        FarmerEntryGate[lotnumber].ProductBagSize = pbs;\r\n        FarmerEntryGate[lotnumber].ProductNoBags = pnobag;\r\n        FarmerEntryGate[lotnumber].status = false;\r\n        emit DataIntoEntryGate(fots, lotnumber);\r\n        return true;\r\n    }\r\n\r\n    function CheckStatus() public returns(string, string, int) {\r\n\r\n        string ots1 = AllCheckHash[msg.sender];\r\n        \r\n        for(uint i=0;i<LotNumber.length;i++)\r\n        {\r\n            string ots2 = FarmerEntryGate[LotNumber[i]].FarmerOTS;\r\n            if(stringsEqual(ots1,ots2) && !FarmerEntryGate[LotNumber[i]].status)\r\n            {\r\n                FarmerEntryGate[LotNumber[i]].status = true;   \r\n                return (FarmerEntryGate[LotNumber[i]].FarmerMandi, FarmerEntryGate[LotNumber[i]].ProductName,  FarmerEntryGate[LotNumber[i]].ProductNoBags);\r\n            }\r\n            else \r\n                return (\"null\",\"null\",0);  \r\n        }\r\n\r\n    \r\n\r\n    }\r\n}",
  "sourcePath": "C:\\Enam1\\contracts\\initial.sol",
  "compiler": {
    "name": "solc",
    "version": "0.4.24+commit.e67f0147.Emscripten.clang"
  },
  "schemaVersion": "2.0.1",
  "updatedAt": "2018-10-30T21:25:05.753Z"
}